:020000040800F2
:10000000700800200D02000869020008690200085B
:100010006902000869020008690200080000000087
:10002000000000000000000000000000690200085D
:100030006902000800000000690200086902000867
:1000400069020008690200086902000869020008E4
:10005000690200086902000871030008C90300086A
:1000600069020008690200086902000869020008C4
:1000700069020008690200086902000869020008B4
:1000800069020008690200086902000869020008A4
:100090006902000869020008690200086902000894
:1000A0006902000869020008690200086902000884
:1000B0006902000869020008690200086902000874
:1000C0006902000869020008690200086902000864
:1000D0006902000869020008690200086902000854
:1000E0006902000869020008690200086902000844
:1000F0006902000869020008690200086902000834
:100100006902000869020008690200086902000823
:100110006902000869020008690200086902000813
:100120006902000869020008690200086902000803
:1001300069020008690200086902000869020008F3
:1001400069020008690200086902000869020008E3
:1001500069020008690200086902000869020008D3
:1001600069020008690200086902000869020008C3
:1001700069020008690200086902000869020008B3
:10018000690200086902000890B484B000AF034619
:100190000A46FB711346BB710023FB60BB7903F079
:1001A00003039B000F2202FA03F3FB601649BB799D
:1001B0009B08DBB21846144ABB799B08DBB20233BA
:1001C00052F82320FB68DB431A40831C41F82320AC
:1001D0000D48BB799B08DBB21C460B4ABB799B08D8
:1001E000DBB2023352F82320F979BB7903F0030321
:1001F0009B0001FA03F31A43A31C40F8232000BF1D
:100200001037BD4690BC70470038014080B582B0C1
:1002100000AF104B7B60104B3B6007E03B681A1D42
:100220003A607A68111D796012681A603B680B4A5F
:100230009342F3D30A480B494FF000028842B8BFFB
:1002400040F8042BFADB00F041FA00BF0837BD4646
:1002500080BD00BF8611000800000020340000208F
:10026000340000207000002080B400AFFEE70000E2
:1002700080B586B000AF0121012000F03FFA0121D6
:100280004FF4804000F076FA00233B7503233B6176
:100290000223FB7507F110031946344800F0C4FA35
:1002A00000210020FFF770FF01210020FFF76CFF05
:1002B0000123BB600123BB7300233B7310237B73BB
:1002C00007F10803184600F051FD0223BB6007F157
:1002D0000803184600F04AFD06233B710123FB7119
:1002E0000A237B710023BB713B1D184600F0BEFD45
:1002F00007233B713B1D184600F0B8FD0122022187
:100300001A4800F037FB02233B750023BB7504231A
:100310003B610023FB7503237B7507F1100319462E
:10032000124800F081FA05220521104800F022FB56
:10033000052206210D4800F01DFB052207210B4870
:1003400000F018FB02233B750023BB75E0233B61E3
:100350000223FB7502237B7507F11003194603483E
:1003600000F062FA00BF1837BD4680BD00000240B1
:1003700080B500AF0121114800F0E3FA0346002BDD
:100380000ED00F4B1B78002B03D10D4B01221A709E
:100390000FE00C4B00221A70094B00221A7008E083
:1003A000074B1B78002B04D0064B01221A7000F07B
:1003B000EBF8012000F04CFD00BF80BD00000240C2
:1003C000360000203400002080B500AF0221114823
:1003D00000F0B7FA0346002B0ED00F4B1B78002B12
:1003E00003D10D4B01221A700FE00C4B00221A7042
:1003F000094B00221A7008E0074B1B78002B04D031
:10040000064B01221A7000F0BFF8022000F020FD18
:1004100000BF80BD000002403700002035000020F2
:1004200080B58AB000AF78600121012000F084F926
:100430000023BB840023FB8363233B620023BB8335
:10044000002387F8263007F11C0319464FF080403F
:1004500000F06EFD01214FF0804000F0D3FD6023DD
:100460003B810023BB8201237B817B683B6107F1D9
:10047000080319464FF0804000F0E4FD08214FF0DA
:10048000804000F065FE00BF2837BD4680BD0000FB
:1004900080B590B000AF01214FF4800000F02EF93C
:1004A0004FF0C0637B601D4BBB601D4BFB60402366
:1004B0003B6118237B610023BB614FF48063FB61C8
:1004C0004FF400633B624FF400537B620023BB6236
:1004D0004FF48033FB6200233B630023BB630023A4
:1004E000FB633B1D19460F4800F08CFA01210D48B3
:1004F00000F0DEFA0C4BFB6000233B6118237B61AC
:100500003B1D1946094800F07DFA0121074800F01B
:10051000CFFA00BF4037BD4680BD00BF0C30014060
:1005200000000020586402403C000020106402409B
:1005300080B586B000AF01214FF4805000F01AF969
:10054000104800F039FB0023BB804FF48273FB801E
:100550004FF400633B8100237B810023BB814FF478
:100560000073FB8100233B8200237B820723BB8235
:100570003B1D1946034800F059FB00BF1837BD4624
:1005800080BD00BF0030014080B500AF00214FF0BA
:10059000804000F037FD01220221084800F0A8FB4E
:1005A00001220121054800F0A3FB0121034800F0CE
:1005B00080FB034B01221A7000BF80BD0030014058
:1005C0003800002080B582B000AF374B1B78002B7D
:1005D00066D0364B1B78002B62D1354B1B78002B35
:1005E0005ED14FF0C051334800F07EFA0346002B35
:1005F00056D03149314800F077FA0346002B4FD0EE
:1006000080212F4800F097FB0346002B48D14FF084
:10061000C051284800F0A2FA2749284800F09EFA65
:100620000021244800F044FA0021244800F040FA58
:1006300000220221224800F05BFB00220121204819
:1006400000F056FB00211E4800F033FB164B002241
:100650001A700023FB710023FB7106E0FB79194A35
:100660000021D154FB790133FB71FB79312BF5D992
:10067000154B1B78002B0CBF01230023DBB21A465D
:10068000114B1A70104B1B78002B01D0192300E07E
:100690004B231846FFF7C4FEFFF7FAFEFFF748FFAB
:1006A00000BF0837BD4680BD380000203400002060
:1006B0003500002058640240200000101064024001
:1006C000003001403C0000203000002080B500AF29
:1006D000FFF7CEFD084B1B78002B01D0192300E05B
:1006E0004B231846FFF79CFEFFF7D2FEFFF720FFD3
:1006F000FFF768FFFCE700BF3000002080B483B044
:1007000000AF78600B46FB70FB78002B06D00949E0
:10071000084B1A6B7B6813430B6306E00549054BD6
:100720001A6B7B68DB4313400B6300BF0C37BD467D
:1007300080BC70470038024080B483B000AF78605E
:100740000B46FB70FB78002B06D00949084B1A6C4E
:100750007B6813430B6406E00549054B1A6C7B6804
:10076000DB4313400B6400BF0C37BD4680BC7047B1
:100770000038024080B483B000AF78600B46FB7055
:10078000FB78002B06D00949084B5A6C7B68134351
:100790004B6406E00549054B5A6C7B68DB4313400C
:1007A0004B6400BF0C37BD4680BC70470038024028
:1007B00080B483B000AF78600B46FB70FB78002BF1
:1007C00006D00949084B1A6A7B6813430B6206E09E
:1007D0000549054B1A6A7B68DB4313400B6200BF77
:1007E0000C37BD4680BC70470038024080B483B0EF
:1007F00000AF78600B46FB70FB78002B06D00949F0
:10080000084B5A6A7B6813434B6206E00549054B67
:100810005A6A7B68DB4313404B6200BF0C37BD460E
:1008200080BC70470038024080B487B000AF786069
:10083000396000237B6100233B610023FB600023C0
:100840007B6176E001227B6902FA03F33B613B683E
:100850001A683B691340FB60FA683B699A4265D1AC
:100860007B681A687B695B00032101FA03F3DB43B1
:100870001A407B681A607B681A683B681B791946C6
:100880007B695B0001FA03F31A437B681A603B68DB
:100890001B79012B03D03B681B79022B2ED17B687F
:1008A0009A687B695B00032101FA03F3DB431A407A
:1008B0007B689A607B689A683B685B7919467B69BC
:1008C0005B0001FA03F31A437B689A607B685A68FD
:1008D0007B699BB2194601238B40DB431A407B683E
:1008E0005A607B685B683A68927911467A6992B27D
:1008F00001FA02F292B21A437B685A607B68DA68A6
:100900007B699BB25B00032101FA03F3DB431A40CE
:100910007B68DA607B68DA683B68DB7919467B695B
:100920005B0001FA03F31A437B68DA607B690133E9
:100930007B617B690F2B85D900BF1C37BD4680BC0E
:10094000704780B485B000AF78600B467B80002391
:10095000FB737B681A697B881340002B02D001234C
:10096000FB7301E00023FB73FB7B18461437BD4685
:1009700080BC704780B485B000AF78600B467B8048
:1009800013467B700023FB600023BB607A787B8872
:1009900003F007039B0002FA03F3FB607B88DB088C
:1009A0009BB218467B88DB089BB21A467B680832EC
:1009B00053F822207B8803F007039B000F2101FAE4
:1009C00003F3DB4302EA03017B6800F1080243F80A
:1009D00022107B88DB089BB21A467B68083253F8EA
:1009E0002220FB681343BB607B88DB089BB21A465E
:1009F0007B680832B96843F8221000BF1437BD463F
:100A000080BC704780B485B000AF78603960002347
:100A1000FB607B681B68FB60FA68244B1340FB603B
:100A20003B681A683B68DB681A433B685B691A439A
:100A30003B689B691A433B68DB691A433B681B6A46
:100A40001A433B685B6A1A433B689B6A1A433B68DC
:100A50005B6B1A433B689B6B1343FA681343FB6061
:100A60007B68FA681A607B685B69FB60FB6823F04F
:100A70000703FB603B68DA6A3B681B6B1343FA6849
:100A80001343FB607B68FA685A613B681A697B68AC
:100A90005A603B685A687B689A603B689A687B68D2
:100AA000DA6000BF1437BD4680BC70473F801CF041
:100AB00080B483B000AF78600B46FB70FB78002BEE
:100AC00006D07B681B6843F001027B681A6005E072
:100AD0007B681B6823F001027B681A6000BF0C373B
:100AE000BD4680BC7047000080B487B000AF78601E
:100AF00039600023FB750023FB607B68144A934236
:100B000002D8144B3B6101E0134B3B613B6803F09F
:100B10000053002B03D03B695B68FB6002E03B693C
:100B20001B68FB60FB6823F0F02323F08213FB605B
:100B3000FA683B681340002B02D00123FB7501E0EB
:100B40000023FB75FB7D18461C37BD4680BC7047F3
:100B50000F640240006002400064024080B485B02F
:100B600000AF786039607B68104A934202D8104B1E
:100B7000FB6001E00F4BFB603B6803F00053002B70
:100B800007D03B6823F0F02323F08213FA68D36088
:100B900006E03B6823F0F02323F08213FA689360A9
:100BA00000BF1437BD4680BC704700BF0F640240D1
:100BB000006002400064024080B582B000AF7860FF
:100BC0007B68174A93420AD101214FF48050FFF706
:100BD0000DFE00214FF48050FFF708FE1CE07B68FB
:100BE000104A93420AD101214FF48040FFF7E0FD03
:100BF00000214FF48040FFF7DBFD0DE07B680A4ADF
:100C0000934209D101214FF40040FFF7D1FD0021AB
:100C10004FF40040FFF7CCFD00BF0837BD4680BD54
:100C20000030014000380040003C004080B485B0F6
:100C300000AF786039600023FB817B681B88FB81F3
:100C4000FB8903F44153FB813B681A883B685B884E
:100C500013439AB23B689B8813439AB23B68DB8884
:100C600013439AB23B681B8913439AB23B685B8972
:100C700013439AB23B689B8913439AB23B68DB8962
:100C800013439AB2FB891343FB817B68FA891A806C
:100C90007B689B8B9BB223F400639AB27B689A8338
:100CA0003B681A8A7B681A8200BF1437BD4680BC35
:100CB000704780B483B000AF78600B46FB70FB7860
:100CC000002B08D07B681B889BB243F040039AB28C
:100CD0007B681A8007E07B681B889BB223F0400387
:100CE0009AB27B681A8000BF0C37BD4680BC704743
:100CF00080B483B000AF78600B467B8013467B7076
:100D00007B78002B08D07B689B889AB27B88134342
:100D10009AB27B689A8009E07B689B889AB27B884C
:100D2000DB439BB213409AB27B689A8000BF0C37BA
:100D3000BD4680BC704780B485B000AF78600B467C
:100D40007B800023FB737B681B899AB27B881340EE
:100D50009BB2002B02D00123FB7301E00023FB7345
:100D6000FB7B18461437BD4680BC704780B485B005
:100D700000AF78600023FB60344BFB607B689B799D
:100D8000002B4FD03149314B1A687B681B68DB431D
:100D900013400B602D492D4B5A687B681B68DB4361
:100DA00013404B607B681B791A46FB681344FB6059
:100DB000FB68FA6811687A6812680A431A60234966
:100DC000224B9A687B681B68DB4313408B601F498A
:100DD0001E4BDA687B681B68DB431340CB607B6883
:100DE0005B79102B0ED11949184B9A687B681B68E8
:100DF00013438B601549154BDA687B681B681343F6
:100E0000CB601DE0114BFB607B685B791A46FB6889
:100E10001344FB60FB68FA6811687A6812680A4339
:100E20001A600DE07B681B791A46FB681344FB606F
:100E3000FB68FA6811687A681268D2430A401A603F
:100E400000BF1437BD4680BC704700BF003C014066
:100E500080B483B000AF7860034A7B68536100BF01
:100E60000C37BD4680BC7047003C014080B485B063
:100E700000AF78600023FB730023BB730F237B73E9
:100E80007B68DB78002B39D0274BDB68DB431B0A00
:100E9000DBB203F00703FB73FB7BC3F10403BB73FB
:100EA0007A7BFB7B42FA03F37B737B685B781A46A1
:100EB000BB7B02FA03F3FB737B689A787B7B13405E
:100EC000DAB2FB7B1343FB73FB7B1B01FB73174AFB
:100ED0007B681B781344FA7B83F80023134A7B68F2
:100EE0001B785B09DBB218467B681B7803F01F0395
:100EF000012101FA03F342F820300FE00B497B682F
:100F00001B785B09DBB218467B681B7803F01F0374
:100F100001229A4000F1200341F8232000BF14373A
:100F2000BD4680BC704700BF00ED00E000E100E07E
:100F300080B485B000AF786039600023FB817B68A6
:100F40001B88FB817B68284A934213D07B68274A21
:100F500093420FD07B68B3F1804F0BD07B68244A5B
:100F6000934207D07B68234A934203D07B68224A8E
:100F7000934208D1FB8923F07003FB813B685A88B8
:100F8000FB891343FB817B681C4A93420CD07B682E
:100F90001B4A934208D0FB8923F44073FB813B68D2
:100FA0001A89FB891343FB817B68FA891A803B68A5
:100FB0005A687B68DA623B681A887B681A857B68A6
:100FC000094A934203D07B68084A934204D13B68A4
:100FD0009B7A9AB27B681A867B6801229A8200BF4C
:100FE0001437BD4680BC704700000140000401403A
:100FF0000004004000080040000C004000100040C9
:101000000014004080B483B000AF78600B46FB70E2
:10101000FB78002B08D07B681B889BB243F0010350
:101020009AB27B681A8007E07B681B889BB223F02A
:1010300001039AB27B681A8000BF0C37BD4680BCA2
:101040007047000080B485B000AF7860396000233D
:101050007B810023FB810023BB817B681B8C9BB2BF
:1010600023F480739AB27B681A847B681B8CFB81A3
:101070007B689B88BB817B689B8B7B817B8923F012
:1010800070037B817B8923F003037B813B681A8893
:101090007B8913437B81FB8923F40073FB813B68CD
:1010A0009B891B029AB2FB891343FB813B685B88D7
:1010B0001B029AB2FB891343FB817B68224A93424D
:1010C00003D07B68214A93422BD1FB8923F4006330
:1010D000FB813B68DB891B029AB2FB891343FB81CE
:1010E000FB8923F48063FB813B689B881B029AB2D7
:1010F000FB891343FB81BB8923F48053BB81BB89EC
:1011000023F40053BB813B681B8A1B019AB2BB8945
:101110001343BB813B685B8A1B019AB2BB891343B3
:10112000BB817B68BA899A807B687A899A833B689D
:101130009A687B68DA637B68FA891A8400BF14377F
:10114000BD4680BC704700BF000001400004014064
:1011500080B485B000AF78600B467B800023FB81B4
:101160007B689B8BFB81FB8923F00803FB81FA8959
:101170007B881343FB817B68FA899A8300BF14370D
:06118000BD4680BC704773
:1011860048692C20696E6974696174696F6E2053B1
:10119600504920636F6D6D756E69636174696F6E1A
:1011A6002C206D617374657220756E697420000061
:0411B6000100000034
:0400000508000000EF
:00000001FF
