:020000040800F2
:100000006004002081020008E1020008E10200080B
:10001000E1020008E1020008E1020008000000001F
:10002000000000000000000000000000E1020008E5
:10003000E102000800000000E1020008E1020008FF
:10004000E1020008E1020008E1020008E102000804
:10005000E1020008E1020008E1020008E1020008F4
:10006000E1020008E1020008E1020008E1020008E4
:10007000E1020008E1020008E1020008E1020008D4
:10008000E1020008E1020008E1020008E1020008C4
:10009000E1020008E1020008E1020008E1020008B4
:1000A000E1020008E1020008E1020008E1020008A4
:1000B000E1020008E1020008E1020008E102000894
:1000C000E1020008E1020008E1020008E102000884
:1000D000E1020008E1020008E1020008E102000874
:1000E000E1020008E1020008E1020008000000004F
:1000F0000000000000000000000000000000000000
:1001000000000000000000005FF808F180B500AFBB
:10011000154A154B1B6843F0010313601249124B3B
:100120005A68124B13404B600F4A0F4B1B6823F069
:10013000847323F4803313600B4A0B4B1B6823F446
:1001400080231360084A084B5B6823F4FE03536066
:10015000054B4FF41F029A6000F00CF8044B4FF06F
:1001600000629A6000BF80BD001002400000FFF8EE
:1001700000ED00E080B500AF00F002F800BF80BDE8
:1001800080B483B000AF00237B6000233B603A4A19
:10019000394B1B6843F480331360374B1B6803F4FF
:1001A00000333B607B6801337B603B68002B03D1ED
:1001B0007B68B3F5A06FF0D12F4B1B6803F40033BD
:1001C000002B02D001233B6001E000233B603B6831
:1001D000012B4BD1294A294B1B6843F010031360B4
:1001E000264A264B1B6823F003031360234A234B44
:1001F0001B6843F0020313601F4A1F4B5B68536088
:100200001D4A1D4B5B6853601B4A1B4B5B6843F4E4
:1002100080635360184A184B5B6823F47C13536067
:10022000154A154B5B6843F4E8135360124A124BAE
:100230001B6843F08073136000BF0F4B1B6803F013
:100240000073002BF9D00C4A0B4B5B6823F00303BF
:100250005360094A084B5B6843F00203536000BFD8
:10026000054B5B6803F00C03082BF9D100BF0C377A
:10027000BD4680BC704700BF001002400020024015
:1002800080B582B000AF114B7B60114B3B6007E043
:100290003B681A1D3A607A68111D796012681A600D
:1002A0003B680C4A9342F3D30B480C494FF00002D1
:1002B0008842B8BF40F8042BFADBFFF727FF00F0B5
:1002C000EFF900BF0837BD4680BD00BF44070008F6
:1002D00000000020280000202800002060000020EE
:1002E00080B400AFFEE780B489B000AF78603960B9
:1002F0000023FB6100233B610023BB610023FB6003
:1003000000237B610023BB603B68DB7803F00F03B5
:10031000FB613B68DB7803F01003002B05D03B68E2
:100320009B781A46FB691343FB613B681B88DBB271
:10033000002B44D07B681B687B610023BB6138E0E5
:100340000122BB6902FA03F3FB603B681B881A4673
:10035000FB6813403B613A69FB689A4226D1BB694E
:100360009B00FB600F22FB6802FA03F3BB60BB68D3
:10037000DB437A6913407B61FA69FB6802FA03F395
:100380007A6913437B613B68DB78282B05D1012216
:10039000BB699A407B685A6108E03B68DB78482B70
:1003A00004D10122BB699A407B681A61BB690133A1
:1003B000BB61BB69072BC3D97B687A691A603B684C
:1003C0001B88FF2B46D97B685B687B610023BB6180
:1003D0003AE0BB690833012202FA03F3FB603B6891
:1003E0001B881A46FB6813403B613A69FB689A42D6
:1003F00027D1BB699B00FB600F22FB6802FA03F365
:10040000BB60BB68DB437A6913407B61FA69FB68B8
:1004100002FA03F37A6913437B613B68DB78282B8C
:1004200005D1BB69083301229A407B685A613B6859
:10043000DB78482B05D1BB69083301229A407B68E1
:100440001A61BB690133BB61BB69072BC1D97B68EA
:100450007A695A6000BF2437BD4680BC704780B4BB
:1004600083B000AF78600B467B807A887B681A6126
:1004700000BF0C37BD4680BC704780B483B000AF6E
:1004800078600B467B807A887B685A6100BF0C37A6
:10049000BD4680BC7047000080B582B000AF01212E
:1004A000052000F031F91023FB710223BB800323E8
:1004B000BB713B1D19461348FFF715FF0221114878
:1004C000FFF7DBFF0023FB71A023BB803B1D194618
:1004D0000C48FFF708FF1823FB714023BB803B1D2E
:1004E00019460848FFF7FFFE0023FB710123BB807C
:1004F0003B1D19460348FFF7F6FE00BF0837BD460F
:1005000080BD00BF0008014080B483B000AF114A35
:10051000104B9B6843F48003936000BF0D4B1B6836
:1005200003F00203002BF9D00A4BDB6C7B600A4B13
:100530001B687A689A4206D9084B1B687A689A4207
:1005400001D2012300E0002318460C37BD4680BCD1
:10055000704700BF00240140280000202400002034
:1005600080B500AF01214FF4007000F0CDF8124BC0
:1005700000225A63104A104B1B6943F007031361B2
:100580000D4A0D4B9B6843F4F01393600A4A0A4BE3
:100590009B6843F00403936000BF074B9B6803F024
:1005A0000403002BF9D0044A034B9B6843F001037A
:1005B000936000BF80BD00BF0024014080B500AF44
:1005C0000121012000F082F81B4B1C4A9A601A4B53
:1005D0001B4ADA60184B19225A60174A164B1B68DF
:1005E00043F480531360144A134B1B6843F4B06305
:1005F0001360114A104B1B6843F001031360114B49
:100600000E4A9A600F4B104ADA600E4B11225A6064
:100610000C4A0C4B1B6843F480531360094A094B86
:100620001B6843F4B2631360064A064B1B6843F031
:100630000103136000BF80BD1C0002400C3001406C
:100640002C000020300002400000002080B500AFE8
:1006500001214FF4805000F057F80F4A0E4B1B88D1
:100660009BB243F428539BB213800B4A0A4B9B88DE
:100670009BB243F003039BB29380074A064B1B884F
:100680009BB243F040039BB2138002210348FFF763
:10069000E6FE00BF80BD00BF003001400008014001
:1006A00080B582B000AFFFF7F7FEFFF759FFFFF705
:1006B00085FFFFF7CBFFFFF727FF0346FB71022102
:1006C0000148FFF7DAFEFEE70008014080B483B07E
:1006D00000AF78600B46FB70FB78002B06D0094911
:1006E000084B5A697B6813434B6106E00549054B8B
:1006F0005A697B68DB4313404B6100BF0C37BD4632
:1007000080BC70470010024080B483B000AF7860B6
:100710000B46FB70FB78002B06D00949084B9A6901
:100720007B6813438B6106E00549054B9A697B683A
:10073000DB4313408B6100BF0C37BD4680BC704764
:040740000010024063
:1007440048692C206D61737465722C20697420696A
:100754007320736C3120726573706F6E64696E6799
:0807640020000000FF07000067
:0400000508000000EF
:00000001FF
