:020000040800F2
:100000007004002081020008E1020008E1020008FB
:10001000E1020008E1020008E1020008000000001F
:10002000000000000000000000000000E1020008E5
:10003000E102000800000000E1020008E1020008FF
:10004000E1020008E1020008E1020008E102000804
:10005000E1020008E1020008E1020008E1020008F4
:10006000E1020008E1020008E1020008E1020008E4
:10007000E1020008E1020008E1020008E1020008D4
:10008000E1020008E1020008E1020008E1020008C4
:10009000E1020008E1020008E1020008E1020008B4
:1000A000E1020008E1020008E1020008E1020008A4
:1000B000E1020008E1020008E1020008E102000894
:1000C000E1020008E1020008E1020008E102000884
:1000D000E1020008E1020008E1020008E102000874
:1000E000E1020008E1020008E1020008000000004F
:1000F0000000000000000000000000000000000000
:1001000000000000000000005FF808F180B500AFBB
:10011000154B1B68144A43F001031360124B5A68D5
:100120001149124B13404B600F4B1B680E4A23F0D2
:10013000847323F4803313600B4B1B680A4A23F447
:1001400080231360084B5B68074A23F4FE03536067
:10015000054B4FF41F029A6000F00CF8044B4FF06F
:1001600000629A6000BF80BD001002400000FFF8EE
:1001700000ED00E080B500AF00F002F800BF80BDE8
:1001800080B483B000AF00237B6000233B603A4B18
:100190001B68394A43F480331360374B1B6803F400
:1001A00000333B607B6801337B603B68002B03D1ED
:1001B0007B68B3F5A06FF0D12F4B1B6803F40033BD
:1001C000002B02D001233B6001E000233B603B6831
:1001D000012B4BD1294B1B68284A43F010031360B5
:1001E000264B1B68254A23F003031360234B1B682F
:1001F000224A43F0020313601F4B1F4A5B6853609F
:100200001D4B1D4A5B6853601B4B5B681A4A43F4E5
:1002100080635360184B5B68174A23F47C13536068
:10022000154B5B68144A43F4E8135360124B1B6888
:10023000114A43F08073136000BF0F4B1B6803F03B
:100240000073002BF9D00C4B5B680B4A23F00303BF
:100250005360094B5B68084A43F00203536000BFD8
:10026000054B5B6803F00C03082BF9D100BF0C377A
:10027000BD4680BC704700BF001002400020024015
:1002800080B582B000AF114B7B60114B3B6007E043
:100290007A68131D7B603B68191D396012681A600B
:1002A0003B680C4A9342F3D30B480C494FF00002D1
:1002B0008842B8BF40F8042BFADBFFF727FF00F0B5
:1002C000B9FA00BF0837BD4680BD00BF2C12000838
:1002D000000000203C0000203C00002070000020B6
:1002E00080B400AFFEE780B489B000AF78603960B9
:1002F0000023FB6100233B610023BB610023FB6003
:1003000000237B610023BB603B68DB7803F00F03B5
:10031000FB613B68DB7803F01003002B05D03B68E2
:100320009B781A46FB691343FB613B681B88DBB271
:10033000002B44D07B681B687B610023BB6138E0E5
:100340000122BB6902FA03F3FB603B681B881A4673
:10035000FB6813403B613A69FB689A4226D1BB694E
:100360009B00FB600F22FB6802FA03F3BB60BB68D3
:10037000DB437A6913407B61FA69FB6802FA03F395
:100380007A6913437B613B68DB78282B05D1012216
:10039000BB699A407B685A6108E03B68DB78482B70
:1003A00004D10122BB699A407B681A61BB690133A1
:1003B000BB61BB69072BC3D97B687A691A603B684C
:1003C0001B88FF2B46D97B685B687B610023BB6180
:1003D0003AE0BB690833012202FA03F3FB603B6891
:1003E0001B881A46FB6813403B613A69FB689A42D6
:1003F00027D1BB699B00FB600F22FB6802FA03F365
:10040000BB60BB68DB437A6913407B61FA69FB68B8
:1004100002FA03F37A6913437B613B68DB78282B8C
:1004200005D1BB69083301229A407B685A613B6859
:10043000DB78482B05D1BB69083301229A407B68E1
:100440001A61BB690133BB61BB69072BC1D97B68EA
:100450007A695A6000BF2437BD4680BC704780B4BB
:1004600083B000AF78600B467B807A887B681A6126
:1004700000BF0C37BD4680BC704780B483B000AF6E
:1004800078600B467B807A887B685A6100BF0C37A6
:10049000BD4680BC7047000080B582B000AF01212E
:1004A000052000F0F3F91023FB710223BB80032326
:1004B000BB713B1D19461B48FFF715FF0221194868
:1004C000FFF7DBFF0121012000F0C2F901214FF409
:1004D000805000F0DBF90423FB71A023BB803B1D9F
:1004E00019461048FFF7FFFE20210E48FFF7C5FF11
:1004F0001823FB714023BB803B1D19460948FFF7B9
:10050000F2FE0121012000F0DFF90423FB71012339
:10051000BB803B1D19460348FFF7E5FE00BF0837C7
:10052000BD4680BD00080140B0B582B000AF4FF0BD
:1005300080431B8F9BB2184600F036FB4FF0000241
:100540004FF0000300F0E4F903460C4625461C4634
:100550004FF080439B8E9BB2184600F025FB4FF076
:1005600000024FF0000300F0D3F902460B4620468C
:10057000294600F0ADFC03460C461846214600F023
:100580008FFD03467B600C4B1B681946786800F0B2
:1005900043FE0346002B0AD0084B1B6819467868B7
:1005A00000F01CFE0346002B01D0012300E00023D5
:1005B00018460837BD46B0BD340000203800002082
:1005C00080B400AF4FF080431B8B9BB24FF0804252
:1005D00043F001039BB213834FF080431B8C9BB20B
:1005E0004FF0804223F002039BB213844FF080430C
:1005F0001B8B9BB24FF0804243F400739BB213837A
:100600004FF080431B8C9BB24FF0804243F020039D
:100610009BB213844FF080431B899BB24FF0804202
:1006200043F054039BB213814FF080431B8C9BB269
:100630004FF0804243F011039BB213844FF080438C
:100640004FF6FF729A854FF080431B889BB24FF0A4
:10065000804243F001039BB2138000BFBD4680BCC3
:100660007047000080B400AF1C4B1D4A9A601B4BC2
:100670001C4ADA60194B18225A60184B1B68174A3B
:1006800043F480531360154B1B68144A43F4B06362
:100690001360124B1B68114A43F001031360124BA5
:1006A0000F4A9A60104B114ADA600F4B18225A60B9
:1006B0000D4B1B680C4A43F4805313600A4B1B68B4
:1006C000094A43F4B2631360074B1B68064A43F0C0
:1006D0000103136000BFBD4680BC70471C00024090
:1006E0000C3001403C00002030000240000000209F
:1006F00080B500AF0F4B1B889BB20E4A43F42063BA
:100700009BB213800B4B1B889BB20A4A23F4C37322
:1007100023F001039BB21380064B9B889BB2054AD2
:1007200043F003039BB2938002210348FFF797FE37
:1007300000BF80BD003001400008014080B582B09C
:1007400000AFFFF7F1FE0346002B65D0344B1B884A
:100750009BB2334A43F040039BB2138002213148DD
:10076000FFF78BFE00BF304B1B6803F02003002B0C
:10077000F9D02D4B1B6803F40073002BF3D0284BEA
:100780001B899BB203F08003002BECD1022125488A
:10079000FFF765FE2823FB710223BB803B1D194632
:1007A0002048FFF7A0FD204B5B681F4A43F4087305
:1007B00053601E4B1B681D4A23F0010313601C4B42
:1007C0001B681B4A23F001031360154B9B889BB2E7
:1007D000134A23F003039BB29380114B1B889BB2F7
:1007E0000F4A23F040039BB2138000BFFFF79CFE2B
:1007F0000346002BFAD11023FB710223BB80032395
:10080000BB713B1D19460748FFF76DFD00BFFFF7A1
:100810008BFE0346012BFAD100BF0837BD4680BDD1
:100820000030014000080140000002401C0002406E
:100830003000024080B500AFFFF72EFEFFF7C0FE8C
:10084000FFF710FFFFF754FFFFF778FFF8E700000E
:1008500080B483B000AF78600B46FB70FB78002B50
:1008600006D0094B5A6908497B6813434B6106E07F
:10087000054B5A697B68DB43034913404B6100BF5A
:100880000C37BD4680BC70470010024080B483B076
:1008900000AF78600B46FB70FB78002B06D0094B4D
:1008A0009A6908497B6813438B6106E0054B9A6996
:1008B0007B68DB43034913408B6100BF0C37BD46A7
:1008C00080BC70470010024080B483B000AF7860F5
:1008D0000B46FB70FB78002B06D0094BDA69084900
:1008E0007B681343CB6106E0054BDA697B68DB4329
:1008F00003491340CB6100BF0C37BD4680BC704735
:100900000010024081F0004102E000BF83F000438C
:1009100030B54FEA41044FEA430594EA050F08BF9A
:1009200090EA020F1FBF54EA000C55EA020C7FEA5E
:10093000645C7FEA655C00F0E2804FEA5454D4EBDB
:100940005555B8BF6D420CDD2C4480EA020281EAA5
:10095000030382EA000083EA010180EA020281EADD
:100960000303362D88BF30BD11F0004F4FEA01312F
:100970004FF4801C4CEA113102D0404261EB41013E
:1009800013F0004F4FEA03334CEA133302D05242C4
:1009900063EB430394EA050F00F0A780A4F1010480
:1009A000D5F1200E0DDB02FA0EFC22FA05F28018BA
:1009B00041F1000103FA0EF2801843FA05F35941A0
:1009C0000EE0A5F120050EF1200E012A03FA0EFC1F
:1009D00028BF4CF0020C43FA05F3C01851EBE37149
:1009E00001F0004507D54FF0000EDCF1000C7EEB66
:1009F00000006EEB0101B1F5801F1BD3B1F5001FA4
:100A00000CD349085FEA30004FEA3C0C04F10104C2
:100A10004FEA445212F5800F80F09A80BCF1004FEB
:100A200008BF5FEA500C50F1000041EB045141EA6D
:100A3000050130BD5FEA4C0C404141EB010111F46E
:100A4000801FA4F10104E9D191F0000F04BF014619
:100A50000020B1FA81F308BF2033A3F10B03B3F1F7
:100A600020020CDA0C3208DD02F1140CC2F10C0287
:100A700001FA0CF021FA02F10CE002F11402D8BFE5
:100A8000C2F1200C01FA02F120FA0CFCDCBF41EAB1
:100A90000C019040E41AA2BF01EB0451294330BD80
:100AA0006FEA04041F3C1CDA0C340EDC04F114045D
:100AB000C4F1200220FA04F001FA02F340EA030034
:100AC00021FA04F345EA030130BDC4F10C04C4F17A
:100AD000200220FA02F001FA04F340EA030029465A
:100AE00030BD21FA04F0294630BD94F0000F83F4A4
:100AF000801306BF81F480110134013D4EE77FEA87
:100B0000645C18BF7FEA655C29D094EA050F08BFD2
:100B100090EA020F05D054EA000C04BF19461046B3
:100B200030BD91EA030F1EBF0021002030BD5FEAF7
:100B3000545C05D14000494128BF41F0004130BD1F
:100B400014F580043CBF01F5801130BD01F0004573
:100B500045F0FE4141F470014FF0000030BD7FEAE6
:100B6000645C1ABF194610467FEA655C1CBF0B46E1
:100B7000024650EA013406BF52EA033591EA030FF8
:100B800041F4002130BD00BF90F0000F04BF0021F0
:100B9000704730B54FF4806404F132044FF0000523
:100BA0004FF0000150E700BF90F0000F04BF00219C
:100BB000704730B54FF4806404F1320410F0004502
:100BC00048BF40424FF000013EE700BF42004FEAFD
:100BD000E2014FEA31014FEA02701FBF12F07F437A
:100BE00093F07F4F81F06051704732F07F4208BF31
:100BF000704793F07F4F04BF41F40021704730B538
:100C00004FF4607401F0004521F000411CE700BF83
:100C100050EA010208BF704730B54FF000050AE006
:100C200050EA010208BF704730B511F0004502D507
:100C3000404261EB41014FF4806404F132045FEA09
:100C4000915C3FF4D8AE4FF003025FEADC0C18BFB2
:100C500003325FEADC0C18BF033202EBDC02C2F1A4
:100C6000200300FA03FC20FA02F001FA03FE40EA36
:100C70000E0021FA02F11444BDE600BF70B54FF03A
:100C8000FF0C4CF4E06C1CEA11541DBF1CEA135518
:100C900094EA0C0F95EA0C0F00F0DEF82C4481EA80
:100CA000030621EA4C5123EA4C5350EA013518BFA0
:100CB00052EA033541F4801143F4801338D0A0FB8D
:100CC00002CE4FF00005E1FB02E506F00042E0FB3A
:100CD00003E54FF00006E1FB03569CF0000F18BF40
:100CE0004EF0010EA4F1FF04B6F5007F64F54074E8
:100CF00004D25FEA4E0E6D4146EB060642EAC6217B
:100D000041EA55514FEAC52040EA5E504FEACE2EE7
:100D1000B4F1FD0C88BFBCF5E06F1ED8BEF1004FEA
:100D200008BF5FEA500E50F1000041EB045170BD66
:100D300006F0004646EA010140EA020081EA0301AA
:100D4000B4EB5C04C2BFD4EB0C0541EA045170BDA6
:100D500041F480114FF0000E013C00F3AB8014F120
:100D6000360FDEBF002001F0004170BDC4F1000469
:100D7000203C35DA0C341BDC04F11404C4F12005EA
:100D800000FA05F320FA04F001FA05F240EA020045
:100D900001F0004221F0004110EBD37021FA04F67B
:100DA00042EB06015EEA430E08BF20EAD37070BD35
:100DB000C4F10C04C4F1200500FA04F320FA05F094
:100DC00001FA04F240EA020001F0004110EBD37096
:100DD00041F100015EEA430E08BF20EAD37070BD06
:100DE000C4F1200500FA05F24EEA020E20FA04F3DF
:100DF00001FA05F243EA020321FA04F001F000418E
:100E000021FA04F220EA020000EBD3705EEA430EFE
:100E100008BF20EAD37070BD94F0000F0FD101F02D
:100E20000046400041EB010111F4801F08BF013C66
:100E3000F7D041EA060195F0000F18BF704703F0A4
:100E40000046520043EB030313F4801F08BF013D2B
:100E5000F7D043EA0603704794EA0C0F0CEA1355E7
:100E600018BF95EA0C0F0CD050EA410618BF52EAA1
:100E70004306D1D181EA030101F000414FF00000A7
:100E800070BD50EA410606BF1046194652EA4306B5
:100E900019D094EA0C0F02D150EA013613D195EA29
:100EA0000C0F05D152EA03361CBF104619460AD171
:100EB00081EA030101F0004141F0FE4141F470017B
:100EC0004FF0000070BD41F0FE4141F4780170BD6B
:100ED00070B54FF0FF0C4CF4E06C1CEA11541DBFD0
:100EE0001CEA135594EA0C0F95EA0C0F00F0A7F8D2
:100EF000A4EB050481EA030E52EA03354FEA0131FF
:100F000000F088804FEA03334FF0805545EA131311
:100F100043EA12634FEA022245EA111545EA1065D9
:100F20004FEA00260EF000419D4208BF964244F170
:100F3000FD0404F5407402D25B084FEA3202B61A8F
:100F400065EB03055B084FEA32024FF480104FF463
:100F5000002CB6EB020E75EB030E22BFB61A7546D7
:100F600040EA0C005B084FEA3202B6EB020E75EB6A
:100F7000030E22BFB61A754640EA5C005B084FEAD2
:100F80003202B6EB020E75EB030E22BFB61A75469F
:100F900040EA9C005B084FEA3202B6EB020E75EBAA
:100FA000030E22BFB61A754640EADC0055EA060E6B
:100FB00018D04FEA051545EA16754FEA06164FEAAE
:100FC000C30343EA52734FEAC2025FEA1C1CC0D15A
:100FD00011F4801F0BD141EA00014FF000004FF0E7
:100FE000004CB6E711F4801F04BF01430020B4F1A8
:100FF000FD0C88BFBCF5E06F3FF6AFAEB5EB030C60
:1010000004BFB6EB020C5FEA500C50F1000041EB5C
:10101000045170BD0EF0004E4EEA113114EB5C0429
:10102000C2BFD4EB0C0541EA045170BD41F48011FC
:101030004FF0000E013C90E645EA060E8DE60CEA04
:10104000135594EA0C0F08BF95EA0C0F3FF43BAF21
:1010500094EA0C0F0AD150EA01347FF434AF95EAD8
:101060000C0F7FF425AF104619462CE795EA0C0FBC
:1010700006D152EA03353FF4FDAE1046194622E789
:1010800050EA410618BF52EA43067FF4C5AE50EA63
:1010900041047FF40DAF52EA43057FF4EBAE12E753
:1010A0004FEA4102B2F1E04324BFB3F5001CDCF18A
:1010B000FE5C0DD901F0004C4FEAC0024CEA5070C2
:1010C000B2F1004F40EB830008BF20F001007047F1
:1010D00011F0804F21D113F13872BCBF01F00040F4
:1010E000704741F480114FEA5252C2F11802C2F126
:1010F000200C10FA0CF320FA02F018BF40F00100A7
:101100004FEAC1234FEAD32303FA0CFC40EA0C0058
:1011100023FA02F34FEA4303CCE77FEA625307D195
:1011200050EA01331EBF4FF0FE4040F440007047CC
:1011300001F0004040F0FE4040F40000704700BF66
:101140004FF0FF3C06E000BF4FF0010C02E000BF93
:101150004FF0010C4DF804CD4FEA40024FEA410335
:101160007FEA226C18BF7FEA236C11D001B052EAEB
:10117000530C18BF90EA010F58BFB2EB030088BFB1
:10118000C81738BF6FEAE17018BF40F00100704720
:101190007FEA226C02D15FEA402C05D17FEA236C02
:1011A000E4D15FEA412CE1D05DF8040B704700BF49
:1011B000844608466146FFE70FB5FFF7C9FF0028E0
:1011C00048BF10F1000F0FBD4DF808EDFFF7F4FF19
:1011D0000CBF012000205DF808FB00BF4DF808EDB2
:1011E000FFF7EAFF34BF012000205DF808FB00BFD5
:1011F0004DF808EDFFF7E0FF94BF012000205DF8F7
:1012000008FB00BF4DF808EDFFF7D2FF94BF0120A7
:1012100000205DF808FB00BF4DF808EDFFF7C8FFA0
:0C12200034BF012000205DF808FB00BF77
:10122C0048692C206D61737465722C206375727221
:10123C00656E7420726573706F6E736520697320B0
:10124C00746865207365636F6E64206F6E65200033
:0C125C0000000000CDCC0C3F0000803FE3
:0400000508000000EF
:00000001FF
