:020000040800F2
:100000007004002081020008E1020008E1020008FB
:10001000E1020008E1020008E1020008000000001F
:10002000000000000000000000000000E1020008E5
:10003000E102000800000000E1020008E1020008FF
:10004000E1020008E1020008E1020008E102000804
:10005000E1020008E1020008E1020008E1020008F4
:10006000E1020008E1020008E1020008E1020008E4
:10007000E1020008E1020008E1020008E1020008D4
:10008000E1020008E1020008E1020008E1020008C4
:10009000E1020008E1020008E1020008E1020008B4
:1000A000E1020008E1020008E1020008E1020008A4
:1000B000E1020008E1020008E1020008E102000894
:1000C000E1020008E1020008E1020008E102000884
:1000D000E1020008E1020008E1020008E102000874
:1000E000E1020008E1020008E1020008000000004F
:1000F0000000000000000000000000000000000000
:1001000000000000000000005FF808F180B500AFBB
:10011000154A154B1B6843F0010313601249124B3B
:100120005A68124B13404B600F4A0F4B1B6823F069
:10013000847323F4803313600B4A0B4B1B6823F446
:1001400080231360084A084B5B6823F4FE03536066
:10015000054B4FF41F029A6000F00CF8044B4FF06F
:1001600000629A6000BF80BD001002400000FFF8EE
:1001700000ED00E080B500AF00F002F800BF80BDE8
:1001800080B483B000AF00237B6000233B603A4A19
:10019000394B1B6843F480331360374B1B6803F4FF
:1001A00000333B607B6801337B603B68002B03D1ED
:1001B0007B68B3F5A06FF0D12F4B1B6803F40033BD
:1001C000002B02D001233B6001E000233B603B6831
:1001D000012B4BD1294A294B1B6843F010031360B4
:1001E000264A264B1B6823F003031360234A234B44
:1001F0001B6843F0020313601F4A1F4B5B68536088
:100200001D4A1D4B5B6853601B4A1B4B5B6843F4E4
:1002100080635360184A184B5B6823F47C13536067
:10022000154A154B5B6843F4E8135360124A124BAE
:100230001B6843F08073136000BF0F4B1B6803F013
:100240000073002BF9D00C4A0B4B5B6823F00303BF
:100250005360094A084B5B6843F00203536000BFD8
:10026000054B5B6803F00C03082BF9D100BF0C377A
:10027000BD4680BC704700BF001002400020024015
:1002800080B582B000AF114B7B60114B3B6007E043
:100290003B681A1D3A607A68111D796012681A600D
:1002A0003B680C4A9342F3D30B480C494FF00002D1
:1002B0008842B8BF40F8042BFADBFFF727FF00F0B5
:1002C000B3FA00BF0837BD4680BD00BF3C1200082E
:1002D0000000002030000020300000206C000020D2
:1002E00080B400AFFEE780B489B000AF78603960B9
:1002F0000023FB6100233B610023BB610023FB6003
:1003000000237B610023BB603B68DB7803F00F03B5
:10031000FB613B68DB7803F01003002B05D03B68E2
:100320009B781A46FB691343FB613B681B88DBB271
:10033000002B44D07B681B687B610023BB6138E0E5
:100340000122BB6902FA03F3FB603B681B881A4673
:10035000FB6813403B613A69FB689A4226D1BB694E
:100360009B00FB600F22FB6802FA03F3BB60BB68D3
:10037000DB437A6913407B61FA69FB6802FA03F395
:100380007A6913437B613B68DB78282B05D1012216
:10039000BB699A407B685A6108E03B68DB78482B70
:1003A00004D10122BB699A407B681A61BB690133A1
:1003B000BB61BB69072BC3D97B687A691A603B684C
:1003C0001B88FF2B46D97B685B687B610023BB6180
:1003D0003AE0BB690833012202FA03F3FB603B6891
:1003E0001B881A46FB6813403B613A69FB689A42D6
:1003F00027D1BB699B00FB600F22FB6802FA03F365
:10040000BB60BB68DB437A6913407B61FA69FB68B8
:1004100002FA03F37A6913437B613B68DB78282B8C
:1004200005D1BB69083301229A407B685A613B6859
:10043000DB78482B05D1BB69083301229A407B68E1
:100440001A61BB690133BB61BB69072BC1D97B68EA
:100450007A695A6000BF2437BD4680BC704780B4BB
:1004600083B000AF78600B467B807A887B681A6126
:1004700000BF0C37BD4680BC704780B483B000AF6E
:1004800078600B467B807A887B685A6100BF0C37A6
:10049000BD4680BC7047000080B582B000AF01212E
:1004A000052000F0EDF91023FB710223BB8003232C
:1004B000BB713B1D19461348FFF715FF0221114878
:1004C000FFF7DBFF0423FB71A023BB803B1D194614
:1004D0000C48FFF708FF1823FB714023BB803B1D2E
:1004E00019460848FFF7FFFE0423FB710123BB8078
:1004F0003B1D19460348FFF7F6FE00BF0837BD460F
:1005000080BD00BF00080140B0B582B000AF4FF021
:1005100080431B8F9BB2184600F040FB4FF0000257
:100520004FF0000300F0EEF903460C4625461C464A
:100530004FF080439B8E9BB2184600F02FFB4FF08C
:1005400000024FF0000300F0DDF902460B462046A2
:10055000294600F0B3FC03460C461846214600F03D
:100560001DFE03467B60786800F02AFB0D4B18CB1C
:100570001A46234600F008FE0346002B0DD078688B
:1005800000F01EFB084B18CB1A46234600F0DEFD98
:100590000346002B01D0012300E000231846083752
:1005A000BD46B0BD300000202800002080B500AF5F
:1005B0000121012000F082F94FF080424FF080438A
:1005C0001B8B9BB243F001039BB213834FF080421D
:1005D0004FF080431B8C9BB223F002039BB2138429
:1005E0004FF080424FF080431B8B9BB243F400736B
:1005F0009BB213834FF080424FF080431B8C9BB221
:1006000043F020039BB213844FF080424FF08043AD
:100610001B899BB243F054039BB213814FF080427D
:100620004FF080431B8C9BB243F011039BB21384A9
:100630004FF080434FF6FF729A854FF080424FF0A3
:1006400080431B889BB243F001039BB2138000BF21
:1006500080BD000080B500AF0121012000F0F2F85C
:100660001B4B1C4A9A601A4B1B4ADA60184B182223
:100670005A60174A164B1B6843F480531360144AA0
:10068000134B1B6843F4B0631360114A104B1B6893
:1006900043F001031360114B0E4A9A600F4B104A4E
:1006A000DA600E4B11225A600C4A0C4B1B6843F463
:1006B00080531360094A094B1B6843F4B26313600B
:1006C000064A064B1B6843F00103136000BF80BD60
:1006D0001C0002400C300140380000203000024075
:1006E0000000002080B500AF01214FF4805000F0E1
:1006F000C7F8144A134B1B889BB243F420639BB288
:100700001380104A0F4B1B889BB223F4C37323F052
:1007100001039BB213800B4A0A4B9B889BB243F0A8
:1007200003039BB29380074A064B1B889BB243F09E
:1007300040039BB2138002210348FFF790FE00BFE5
:1007400080BD00BF003001400008014080B582B08C
:1007500000AFFFF7D9FE0346002B57D002212D48EA
:10076000FFF78BFE00BF2C4B1B6803F02003002B10
:10077000F9D0294B1B6803F40073002BF3D0274BEF
:100780001B899BB203F08003002BECD1022121488E
:10079000FFF765FE2823FB710223BB803B1D194632
:1007A0001C48FFF7A0FD1C4A1B4B5B6843F4087311
:1007B00053601B4A1A4B1B6823F001031360194A4C
:1007C000184B1B6823F001031360144A134B9B88DA
:1007D0009BB223F003039BB29380104A0F4B1B88FC
:1007E0009BB223F040039BB2138000BFFFF78CFE47
:1007F0000346002BFAD11023FB710223BB80032395
:10080000BB713B1D19460348FFF76DFD00BF08375C
:10081000BD4680BD0008014000000240003001409C
:100820001C0002403000024080B500AFFFF734FEEC
:10083000FFF7BCFEFFF70EFFFFF754FFFFF786FF41
:10084000F8E7000080B483B000AF78600B46FB701F
:10085000FB78002B06D00949084B5A697B68134383
:100860004B6106E00549054B5A697B68DB43134041
:100870004B6100BF0C37BD4680BC70470010024082
:1008800080B483B000AF78600B46FB70FB78002B20
:1008900006D00949084B9A697B6813438B6106E0CF
:1008A0000549054B9A697B68DB4313408B6100BFA8
:1008B0000C37BD4680BC70470010024080B483B046
:1008C00000AF78600B46FB70FB78002B06D009491F
:1008D000084BDA697B681343CB6106E00549054B99
:1008E000DA697B68DB431340CB6100BF0C37BD4640
:1008F00080BC70470010024081F0004102E000BF60
:1009000083F0004330B54FEA41044FEA430594EACF
:10091000050F08BF90EA020F1FBF54EA000C55EA0A
:10092000020C7FEA645C7FEA655C00F0E2804FEADB
:100930005454D4EB5555B8BF6D420CDD2C4480EABD
:10094000020281EA030382EA000083EA010180EAED
:10095000020281EA0303362D88BF30BD11F0004F3B
:100960004FEA01314FF4801C4CEA113102D0404271
:1009700061EB410113F0004F4FEA03334CEA1333AC
:1009800002D0524263EB430394EA050F00F0A780C4
:10099000A4F10104D5F1200E0DDB02FA0EFC22FABF
:1009A00005F2801841F1000103FA0EF2801843FAB3
:1009B00005F359410EE0A5F120050EF1200E012AA4
:1009C00003FA0EFC28BF4CF0020C43FA05F3C018E2
:1009D00051EBE37101F0004507D54FF0000EDCF15B
:1009E000000C7EEB00006EEB0101B1F5801F1BD304
:1009F000B1F5001F0CD349085FEA30004FEA3C0C08
:100A000004F101044FEA445212F5800F80F09A80FD
:100A1000BCF1004F08BF5FEA500C50F1000041EB01
:100A2000045141EA050130BD5FEA4C0C404141EB05
:100A3000010111F4801FA4F10104E9D191F0000F2C
:100A400004BF01460020B1FA81F308BF2033A3F1AF
:100A50000B03B3F120020CDA0C3208DD02F1140CA6
:100A6000C2F10C0201FA0CF021FA02F10CE002F1E1
:100A70001402D8BFC2F1200C01FA02F120FA0CFCDA
:100A8000DCBF41EA0C019040E41AA2BF01EB045123
:100A9000294330BD6FEA04041F3C1CDA0C340EDC21
:100AA00004F11404C4F1200220FA04F001FA02F364
:100AB00040EA030021FA04F345EA030130BDC4F122
:100AC0000C04C4F1200220FA02F001FA04F340EA17
:100AD0000300294630BD21FA04F0294630BD94F0C8
:100AE000000F83F4801306BF81F480110134013DAF
:100AF0004EE77FEA645C18BF7FEA655C29D094EA20
:100B0000050F08BF90EA020F05D054EA000C04BF9D
:100B10001946104630BD91EA030F1EBF0021002088
:100B200030BD5FEA545C05D14000494128BF41F027
:100B3000004130BD14F580043CBF01F5801130BD8B
:100B400001F0004545F0FE4141F470014FF0000016
:100B500030BD7FEA645C1ABF194610467FEA655CC7
:100B60001CBF0B46024650EA013406BF52EA033569
:100B700091EA030F41F4002130BD00BF90F0000F57
:100B800004BF0021704730B54FF4806404F1320493
:100B90004FF000054FF0000150E700BF90F0000F4C
:100BA00004BF0021704730B54FF4806404F1320473
:100BB00010F0004548BF40424FF000013EE700BF43
:100BC00042004FEAE2014FEA31014FEA02701FBFD3
:100BD00012F07F4393F07F4F81F06051704792F0A5
:100BE000000F14BF93F07F4F704730B54FF460741F
:100BF00001F0004521F0004120E700BF50EA01026A
:100C000008BF704730B54FF000050AE050EA010216
:100C100008BF704730B511F0004502D5404261EB86
:100C200041014FF4806404F132045FEA915C3FF4C7
:100C3000DCAE4FF003025FEADC0C18BF03325FEA60
:100C4000DC0C18BF033202EBDC02C2F1200300FA15
:100C500003FC20FA02F001FA03FE40EA0E0021FA3A
:100C600002F11444C1E600BF70B54FF0FF0C4CF424
:100C7000E06C1CEA11541DBF1CEA135594EA0C0FDA
:100C800095EA0C0F00F0DEF82C4481EA030621EA15
:100C90004C5123EA4C5350EA013518BF52EA033550
:100CA00041F4801143F4801338D0A0FB02CE4FF002
:100CB0000005E1FB02E506F00042E0FB03E54FF032
:100CC0000006E1FB03569CF0000F18BF4EF0010E2A
:100CD000A4F1FF04B6F5007F64F5407404D25FEA26
:100CE0004E0E6D4146EB060642EAC62141EA5551D9
:100CF0004FEAC52040EA5E504FEACE2EB4F1FD0C1B
:100D000088BFBCF5E06F1ED8BEF1004F08BF5FEA98
:100D1000500E50F1000041EB045170BD06F000464A
:100D200046EA010140EA020081EA0301B4EB5C04F7
:100D3000C2BFD4EB0C0541EA045170BD41F48011EF
:100D40004FF0000E013C00F3AB8014F1360FDEBF14
:100D5000002001F0004170BDC4F10004203C35DAF0
:100D60000C341BDC04F11404C4F1200500FA05F373
:100D700020FA04F001FA05F240EA020001F0004214
:100D800021F0004110EBD37021FA04F642EB06018A
:100D90005EEA430E08BF20EAD37070BDC4F10C04B4
:100DA000C4F1200500FA04F320FA05F001FA04F278
:100DB00040EA020001F0004110EBD37041F1000164
:100DC0005EEA430E08BF20EAD37070BDC4F120056F
:100DD00000FA05F24EEA020E20FA04F301FA05F2D7
:100DE00043EA020321FA04F001F0004121FA04F27F
:100DF00020EA020000EBD3705EEA430E08BF20EA4F
:100E0000D37070BD94F0000F0FD101F00046400088
:100E100041EB010111F4801F08BF013CF7D041EA0A
:100E2000060195F0000F18BF704703F0004652000E
:100E300043EB030313F4801F08BF013DF7D043EADF
:100E40000603704794EA0C0F0CEA135518BF95EA95
:100E50000C0F0CD050EA410618BF52EA4306D1D11C
:100E600081EA030101F000414FF0000070BD50EA3B
:100E7000410606BF1046194652EA430619D094EAC5
:100E80000C0F02D150EA013613D195EA0C0F05D1AF
:100E900052EA03361CBF104619460AD181EA030103
:100EA00001F0004141F0FE4141F470014FF00000BB
:100EB00070BD41F0FE4141F4780170BD70B54FF056
:100EC000FF0C4CF4E06C1CEA11541DBF1CEA1355D6
:100ED00094EA0C0F95EA0C0F00F0A7F8A4EB0504B8
:100EE00081EA030E52EA03354FEA013100F08880AF
:100EF0004FEA03334FF0805545EA131343EA126378
:100F00004FEA022245EA111545EA10654FEA00262C
:100F10000EF000419D4208BF964244F1FD0404F5E5
:100F2000407402D25B084FEA3202B61A65EB030541
:100F30005B084FEA32024FF480104FF4002CB6EBFE
:100F4000020E75EB030E22BFB61A754640EA0C007E
:100F50005B084FEA3202B6EB020E75EB030E22BFBE
:100F6000B61A754640EA5C005B084FEA3202B6EBFF
:100F7000020E75EB030E22BFB61A754640EA9C00BE
:100F80005B084FEA3202B6EB020E75EB030E22BF8E
:100F9000B61A754640EADC0055EA060E18D04FEA4C
:100FA000051545EA16754FEA06164FEAC30343EAEC
:100FB00052734FEAC2025FEA1C1CC0D111F4801FB9
:100FC0000BD141EA00014FF000004FF0004CB6E7B2
:100FD00011F4801F04BF01430020B4F1FD0C88BF51
:100FE000BCF5E06F3FF6AFAEB5EB030C04BFB6EB5C
:100FF000020C5FEA500C50F1000041EB045170BD4F
:101000000EF0004E4EEA113114EB5C04C2BFD4EB7B
:101010000C0541EA045170BD41F480114FF0000EFF
:10102000013C90E645EA060E8DE60CEA135594EA7B
:101030000C0F08BF95EA0C0F3FF43BAF94EA0C0F7E
:101040000AD150EA01347FF434AF95EA0C0F7FF4F3
:1010500025AF104619462CE795EA0C0F06D152EA47
:1010600003353FF4FDAE1046194622E750EA41062B
:1010700018BF52EA43067FF4C5AE50EA41047FF43C
:101080000DAF52EA43057FF4EBAE12E74FF0FF3CA1
:1010900006E000BF4FF0010C02E000BF4FF0010C72
:1010A0004DF804CD4FEA410C7FEA6C5C4FEA430CEB
:1010B00018BF7FEA6C5C1BD001B050EA410C0CBF3A
:1010C00052EA430C91EA030F02BF90EA020F00209C
:1010D000704710F1000F91EA030F58BF994208BF03
:1010E00090422CBFD8176FEAE37040F001007047C0
:1010F0004FEA410C7FEA6C5C02D150EA013C07D117
:101100004FEA430C7FEA6C5CD6D152EA033CD3D061
:101110005DF8040B704700BF8446104662468C465B
:101120001946634600E000BF01B5FFF7B7FF00288E
:1011300048BF10F1000F01BD4DF808EDFFF7F4FFB7
:101140000CBF012000205DF808FB00BF4DF808ED42
:10115000FFF7EAFF34BF012000205DF808FB00BF65
:101160004DF808EDFFF7E0FF94BF012000205DF887
:1011700008FB00BF4DF808EDFFF7CEFF94BF01203C
:1011800000205DF808FB00BF4DF808EDFFF7C4FF35
:1011900034BF012000205DF808FB00BF4FEA410288
:1011A000B2F1E04324BFB3F5001CDCF1FE5C0DD9C5
:1011B00001F0004C4FEAC0024CEA5070B2F1004F0F
:1011C00040EB830008BF20F00100704711F0804F12
:1011D00021D113F13872BCBF01F00040704741F4D7
:1011E00080114FEA5252C2F11802C2F1200C10FADB
:1011F0000CF320FA02F018BF40F001004FEAC123BF
:101200004FEAD32303FA0CFC40EA0C0023FA02F362
:101210004FEA4303CCE77FEA625307D150EA013338
:101220001EBF4FF0FE4040F44000704701F0004008
:0C12300040F0FE4040F40000704700BF9A
:10123C0048692C206D61737465722C206974206967
:10124C007320736C3120726573706F6E64696E6796
:10125C002000000000000000CDCCCCCCCCCCDC3F7E
:0400000508000000EF
:00000001FF
